:020000040800F2
:1000000000280020150200086502000865020008AB
:100010006502000865020008650200080000000093
:100020000000000000000000000000006502000861
:100030006502000800000000650200086502000873
:1000400065020008650200086502000865020008F4
:1000500065020008650200086502000865020008E4
:1000600065020008650200086502000865020008D4
:1000700065020008650200086502000865020008C4
:1000800065020008650200086502000865020008B4
:1000900065020008650200086502000865020008A4
:1000A0006502000865020008650200086502000894
:1000B0006502000865020008650200086502000884
:1000C0006502000865020008650200086502000874
:1000D0006502000865020008650200086502000864
:1000E00065020008650200080000000065020008C3
:1000F0006502000865020008650200086502000844
:100100006502000865020008650200086502000833
:100110006502000865020008650200086502000823
:100120006502000865020008650200086502000813
:1001300010B5054C237833B9044B13B10448AFF321
:1001400000800123237010BD00000020000000008B
:10015000B002000808B5034B1BB103490348AFF3D5
:10016000008008BD0000000004000020B00200086C
:1001700080B483B000AF254B1B68244A43F480331E
:10018000136000BF214B1B6803F40033002BF9D030
:100190001E4B9B691D4A43F0100393611C4B5B6827
:1001A0001B4A43F040735360194B5B68184A23F0B5
:1001B000806353600023FB71154BDB68144A43F4E2
:1001C0008043D360FB790133FB71114BDB68104A2C
:1001D00023F48043D360FB790133FB710C4BDB6864
:1001E0000B4A43F48043D360FB790133FB71084B26
:1001F000DB68074A23F48043D360FB790133FB714A
:10020000002318460C37BD4680BC704700100240E2
:10021000001001400D488546AFF300800C480D49A1
:100220000D4A002302E0D458C4500433C4188C4251
:10023000F9D30A4A0A4C002301E013600432A242B7
:10024000FBD300F011F8FFF793FFFEE70028002032
:100250000000002000000020D00200080000002064
:100260001C000020FEE7000070B500260C4D0D4C70
:10027000641BA410A64209D100F01AF800260A4D0A
:100280000A4C641BA410A64205D170BD55F8043B6E
:1002900098470136EEE755F8043B98470136F2E7F8
:1002A000C8020008C8020008C8020008CC02000802
:1002B000F8B500BFF8BC08BC9E467047F8B500BF53
:0802C000F8BC08BC9E46704723
:0402C80055010008D4
:0402CC0031010008F4
:0400000508000215D8
:00000001FF
